{
  "contractName": "PetAdoption",
  "abi": [
    {
      "inputs": [],
      "stateMutability": "nonpayable",
      "type": "constructor"
    },
    {
      "anonymous": false,
      "inputs": [
        {
          "indexed": false,
          "internalType": "uint256",
          "name": "id",
          "type": "uint256"
        },
        {
          "indexed": false,
          "internalType": "string",
          "name": "name",
          "type": "string"
        },
        {
          "indexed": false,
          "internalType": "string",
          "name": "email",
          "type": "string"
        },
        {
          "indexed": false,
          "internalType": "string",
          "name": "phone",
          "type": "string"
        },
        {
          "indexed": false,
          "internalType": "string",
          "name": "status",
          "type": "string"
        }
      ],
      "name": "PetAdded",
      "type": "event"
    },
    {
      "inputs": [],
      "name": "admin",
      "outputs": [
        {
          "internalType": "address",
          "name": "",
          "type": "address"
        }
      ],
      "stateMutability": "view",
      "type": "function"
    },
    {
      "inputs": [],
      "name": "petCount",
      "outputs": [
        {
          "internalType": "uint256",
          "name": "",
          "type": "uint256"
        }
      ],
      "stateMutability": "view",
      "type": "function"
    },
    {
      "inputs": [
        {
          "internalType": "uint256",
          "name": "",
          "type": "uint256"
        }
      ],
      "name": "pets",
      "outputs": [
        {
          "internalType": "uint256",
          "name": "id",
          "type": "uint256"
        },
        {
          "internalType": "string",
          "name": "name",
          "type": "string"
        },
        {
          "internalType": "string",
          "name": "email",
          "type": "string"
        },
        {
          "internalType": "string",
          "name": "phone",
          "type": "string"
        },
        {
          "internalType": "string",
          "name": "status",
          "type": "string"
        },
        {
          "internalType": "bool",
          "name": "isAdopted",
          "type": "bool"
        },
        {
          "internalType": "address",
          "name": "adopter",
          "type": "address"
        }
      ],
      "stateMutability": "view",
      "type": "function"
    },
    {
      "inputs": [
        {
          "internalType": "string",
          "name": "_name",
          "type": "string"
        },
        {
          "internalType": "string",
          "name": "_email",
          "type": "string"
        },
        {
          "internalType": "string",
          "name": "_phone",
          "type": "string"
        },
        {
          "internalType": "string",
          "name": "_status",
          "type": "string"
        }
      ],
      "name": "addPet",
      "outputs": [],
      "stateMutability": "nonpayable",
      "type": "function"
    }
  ],
  "bytecode": "0x60806040525f600155348015610013575f80fd5b50600280546001600160a01b03191633179055610a6d806100335f395ff3fe608060405234801561000f575f80fd5b506004361061004a575f3560e01c8063b4e001b81461004e578063cd619f5814610063578063cfb869bf1461007f578063f851a440146100a5575b5f80fd5b61006161005c3660046106fc565b6100d0565b005b61006c60015481565b6040519081526020015b60405180910390f35b61009261008d3660046107a2565b6103ee565b60405161007697969594939291906107fc565b6002546100b8906001600160a01b031681565b6040516001600160a01b039091168152602001610076565b6002546001600160a01b0316331461013a5760405162461bcd60e51b815260206004820152602260248201527f4f6e6c792061646d696e2063616e20706572666f726d2074686973206163746960448201526137b760f11b60648201526084015b60405180910390fd5b5f84511161018a5760405162461bcd60e51b815260206004820152601860248201527f506574206e616d652063616e6e6f7420626520656d70747900000000000000006044820152606401610131565b5f8351116101d25760405162461bcd60e51b8152602060048201526015602482015274456d61696c2063616e6e6f7420626520656d70747960581b6044820152606401610131565b5f8251116102225760405162461bcd60e51b815260206004820152601c60248201527f50686f6e65206e756d6265722063616e6e6f7420626520656d707479000000006044820152606401610131565b5f81511161026b5760405162461bcd60e51b81526020600482015260166024820152755374617475732063616e6e6f7420626520656d70747960501b6044820152606401610131565b60018054905f61027a83610873565b90915550506040805160e0810182526001805482526020820187815292820186905260608201859052608082018490525f60a0830181905260c08301819052805491820181558052815160069091027f290decd9548b62a8d60345a988386fc84ba6bc95484008f6362f93160ef3e56381019182559251919290917f290decd9548b62a8d60345a988386fc84ba6bc95484008f6362f93160ef3e56490910190610324908261091d565b5060408201516002820190610339908261091d565b506060820151600382019061034e908261091d565b5060808201516004820190610363908261091d565b5060a08201516005909101805460c0909301516001600160a01b031661010002610100600160a81b0319921515929092166001600160a81b0319909316929092171790556001546040517f3d4a75661b768b80718ebdc4da582678267790da296d947de675f1b8e847654b916103e09187908790879087906109d9565b60405180910390a150505050565b5f81815481106103fc575f80fd5b5f918252602090912060069091020180546001820180549193509061042090610897565b80601f016020809104026020016040519081016040528092919081815260200182805461044c90610897565b80156104975780601f1061046e57610100808354040283529160200191610497565b820191905f5260205f20905b81548152906001019060200180831161047a57829003601f168201915b5050505050908060020180546104ac90610897565b80601f01602080910402602001604051908101604052809291908181526020018280546104d890610897565b80156105235780601f106104fa57610100808354040283529160200191610523565b820191905f5260205f20905b81548152906001019060200180831161050657829003601f168201915b50505050509080600301805461053890610897565b80601f016020809104026020016040519081016040528092919081815260200182805461056490610897565b80156105af5780601f10610586576101008083540402835291602001916105af565b820191905f5260205f20905b81548152906001019060200180831161059257829003601f168201915b5050505050908060040180546105c490610897565b80601f01602080910402602001604051908101604052809291908181526020018280546105f090610897565b801561063b5780601f106106125761010080835404028352916020019161063b565b820191905f5260205f20905b81548152906001019060200180831161061e57829003601f168201915b5050506005909301549192505060ff8116906001600160a01b036101009091041687565b634e487b7160e01b5f52604160045260245ffd5b5f82601f830112610682575f80fd5b813567ffffffffffffffff8082111561069d5761069d61065f565b604051601f8301601f19908116603f011681019082821181831017156106c5576106c561065f565b816040528381528660208588010111156106dd575f80fd5b836020870160208301375f602085830101528094505050505092915050565b5f805f806080858703121561070f575f80fd5b843567ffffffffffffffff80821115610726575f80fd5b61073288838901610673565b95506020870135915080821115610747575f80fd5b61075388838901610673565b94506040870135915080821115610768575f80fd5b61077488838901610673565b93506060870135915080821115610789575f80fd5b5061079687828801610673565b91505092959194509250565b5f602082840312156107b2575f80fd5b5035919050565b5f81518084525f5b818110156107dd576020818501810151868301820152016107c1565b505f602082860101526020601f19601f83011685010191505092915050565b87815260e060208201525f61081460e08301896107b9565b828103604084015261082681896107b9565b9050828103606084015261083a81886107b9565b9050828103608084015261084e81876107b9565b94151560a084015250506001600160a01b039190911660c09091015295945050505050565b5f6001820161089057634e487b7160e01b5f52601160045260245ffd5b5060010190565b600181811c908216806108ab57607f821691505b6020821081036108c957634e487b7160e01b5f52602260045260245ffd5b50919050565b601f821115610918575f81815260208120601f850160051c810160208610156108f55750805b601f850160051c820191505b8181101561091457828155600101610901565b5050505b505050565b815167ffffffffffffffff8111156109375761093761065f565b61094b816109458454610897565b846108cf565b602080601f83116001811461097e575f84156109675750858301515b5f19600386901b1c1916600185901b178555610914565b5f85815260208120601f198616915b828110156109ac5788860151825594840194600190910190840161098d565b50858210156109c957878501515f19600388901b60f8161c191681555b5050505050600190811b01905550565b85815260a060208201525f6109f160a08301876107b9565b8281036040840152610a0381876107b9565b90508281036060840152610a1781866107b9565b90508281036080840152610a2b81856107b9565b9897505050505050505056fea26469706673582212201dd9b35f6dbadabfc7e047fe60ff036e1d54b85cfa1711333ae6bbe0ca554c7364736f6c63430008150033",
  "immutableReferences": {},
  "source": "// SPDX-License-Identifier: MIT\npragma solidity ^0.8.21;\n\ncontract PetAdoption {\n    struct Pet {\n        uint id;\n        string name;\n        string email;\n        string phone;\n        string status;\n        bool isAdopted;\n        address adopter;\n    }\n\n    Pet[] public pets;\n    uint public petCount = 0;\n    address public admin;\n\n    //  Define an event to log new pet additions\n    event PetAdded(uint id, string name, string email, string phone, string status);\n\n    constructor() {\n        admin = msg.sender;\n    }\n\n    modifier onlyAdmin() {\n        require(msg.sender == admin, \"Only admin can perform this action\");\n        _;\n    }\n\n    function addPet(\n        string memory _name,\n        string memory _email,\n        string memory _phone,\n        string memory _status\n    ) public onlyAdmin {\n        require(bytes(_name).length > 0, \"Pet name cannot be empty\");\n        require(bytes(_email).length > 0, \"Email cannot be empty\");\n        require(bytes(_phone).length > 0, \"Phone number cannot be empty\");\n        require(bytes(_status).length > 0, \"Status cannot be empty\");\n\n        petCount++;\n\n        pets.push(Pet({\n            id: petCount,\n            name: _name,\n            email: _email,\n            phone: _phone,\n            status: _status,\n            isAdopted: false,\n            adopter: address(0)\n        }));\n\n        //  Emit an event after adding a pet\n        emit PetAdded(petCount, _name, _email, _phone, _status);\n    }\n}\n",
  "sourcePath": "G:\\FINAL YEAR\\PawFinds-v2.0-JWT-OTP-Admin-Dashboard-main\\Blockchain\\contracts\\PetAdoption.sol",
  "compiler": {
    "name": "solc",
    "version": "0.8.21+commit.d9974bed.Emscripten.clang"
  },
  "schemaVersion": "3.4.16",
  "updatedAt": "2025-03-23T16:09:36.424Z",
  "devdoc": {
    "kind": "dev",
    "methods": {},
    "version": 1
  },
  "userdoc": {
    "kind": "user",
    "methods": {},
    "version": 1
  }
}